:020000040000fa
:08000000541c04000000000084
:020000040000fa
:10000800041a0000081a00000c1a0000101a000058
:10001800141a0000001a0000181a0000001a000044
:100028001c1a0000201a0000241a0000281a0000d8
:100038002c1a0000001a0000301a0000341a0000c0
:10004800381a00003c1a0000401a0000441a000048
:10005800481a00004c1a0000501a0000541a0000f8
:10006800581a00005c1a0000601a0000641a0000a8
:10007800681a00006c1a0000001a0000701a0000cc
:10008800741a0000781a00007c1a0000801a000018
:10009800841a0000881a00008c1a0000901a0000c8
:1000a800001a0000001a0000001a0000941a00004c
:1000b800981a00009c1a0000a01a0000001a0000fc
:1000c800a41a0000a81a0000001a0000ac1a0000c8
:1000d800b01a0000b41a0000b81a0000bc1a0000d8
:1000e800c01a0000c41a0000c81a0000cc1a000088
:1000f800d01a0000001a0000d41a0000001a0000ec
:10010800d81a0000dc1a0000e01a0000e41a000007
:10011800e81a0000ec1a0000f01a0000f41a0000b7
:10012800f81a0000fc1a0000001a0000001b00006a
:10013800041b0000081b00000c1b0000101b000023
:10014800141b0000181b00001c1b0000001a0000f4
:10015800001a0000201b0000241b0000281b0000c0
:10016800001a00002c1b0000301b0000341b00008c
:10017800381b00003c1b0000401b0000441b000013
:10018800481b00004c1b0000501b0000541b0000c3
:10019800581b00005c1b0000601b0000641b000073
:1001a800681b00006c1b0000701b0000741b000023
:1001b800781b00007c1b0000801b0000841b0000d3
:1001c800881b00008c1b0000901b0000941b000083
:1001d800981b00009c1b0000a01b0000a41b000033
:1001e800a81b0000ac1b0000b01b0000b41b0000e3
:1001f800b81b0000bc1b0000c01b0000c41b000093
:10020800c81b0000cc1b0000d01b0000d41b000042
:10021800d81b0000dc1b0000e01b0000e41b0000f2
:10022800e81b0000001a0000001a0000001a000075
:10023800001a0000001a0000001a0000001a00004e
:10024800001a0000001a0000001a0000001a00003e
:10025800001a0000001a0000ec1b0000f01b000050
:10026800f41b0000001a0000001a0000001a000029
:10027800001a0000f81b0000fc1b0000001a000018
:10028800001c0000041c0000001a0000001a0000f6
:10029800001a0000001a0000001a0000001a0000ee
:1002a800001a0000001a0000001a0000001a0000de
:1002b800001a0000001a0000001a0000001a0000ce
:1002c800001a0000081c00000c1c0000101c000094
:1002d800141c0000181c00001c1c0000201c00003e
:1002e800241c0000281c00002c1c0000301c0000ee
:1002f800341c0000381c00003c1c0000001a0000e0
:10030800001a0000001a0000001a0000001a00007d
:10031800001a0000401c0000441c0000481c00009b
:100328004c1c0000501c0000001a0000001a0000bd
:10033800001a0000001a0000001a0000001a00004d
:10034800001a0000001a0000001a0000001a00003d
:10035800001a0000001a0000001a0000001a00002d
:10036800001a0000001a0000001a0000001a00001d
:10037800001a0000001a0000001a0000001a00000d
:10038800001a0000001a0000001a0000001a0000fd
:10039800001a0000001a0000001a0000001a0000ed
:1003a800001a0000001a0000001a0000001a0000dd
:1003b800001a0000001a0000001a0000001a0000cd
:1003c800001a0000001a0000001a0000001a0000bd
:1003d800001a0000001a0000001a0000001a0000ad
:1003e800001a0000001a0000001a0000001a00009d
:0803f800001a0000001a0000c9
:020000040000fa
:10300000541c04000000000000000000020000004a
:1030100000000000020000000200000004000000a8
:0c302000000000000001000000000000a3
:020000040000fa
:10302c000000fa000000230070158800b022ef00a9
:10303c00b422ef00bc22ef00100020000016880024
:10304c00c222ef00c422ef00c622ef000128a90023
:10305c002128a80000882800601588000080fa004c
:10306c00000006000400fa00000f78000e80e80053
:10307c000108780000000000a015800062006000cc
:10308c000000e000fcff3a001e0078001000780001
:10309c00c01588001e0078000080e8001000780041
:1030ac00d015880000000000a1158000000220004f
:1030bc00008060000000e000fbff3a000e80e8009a
:1030cc0010007800c1158000010878000e80e8001f
:1030dc00100078000080e800d1158000010878000d
:1030ec000080fa00000006001a00fa00f401470004
:1030fc0080097800760047000108780078004700c6
:10310c00020878000000eb00000f78008000eb0054
:10311c000e80e800010878008000eb006e0047008c
:10312c00010878006000b800700147000089be00fb
:10313c00410020006c004700010878007600470031
:10314c0010007800c200de0076004700010878000d
:10315c0074004700100078000000e00007003a00ff
:10316c008000eb006a00470001087800f00047007f
:10317c006400470001087800060037006a00470029
:10318c00ec0047001108780064004700f400470089
:10319c001108780078004700100078000000e0006b
:1031ac0007003a008000eb00680047000108780037
:1031bc00ee00470066004700010878000700370062
:1031cc0068004700ec0047001108780066004700d3
:1031dc00f80047001108780000000000a0158000de
:1031ec00620060000000e000fcff3a002f00370096
:1031fc00a0158000620060000000e00011003a00a1
:10320c00640047001000780010007800c01588009a
:10321c0064004700100078000080e800100078007f
:10322c00d015880064004700900078006a004700c1
:10323c00100078008080400064004700010878008e
:10324c001e0fe800a1158000000220000080600025
:10325c000000e00015003a006600470010007800fe
:10326c00c115800001087800660047001000780046
:10327c000080e800d1158000010878006600470046
:10328c0090007800680047001000780080804000b3
:10329c0066004700010878000e80e80010007800f6
:1032ac008000e8000e80e8000108780076004700f6
:1032bc00100078009e007800808f5000ccff390001
:1032cc001a003700a1158000000220000080600069
:1032dc000000e00015003a0066004700100078007e
:1032ec00c1158000010878006600470010007800c6
:1032fc000080e800d11580000108780066004700c6
:10330c009000780068004700100078008080400032
:10331c0066004700010878000e80e8001000780075
:10332c008000e8000e80e800010878000e80e800bc
:10333c00900078007600470010007800808f5000d5
:10334c00e0ff39001e0078000080fa000000060043
:10335c000800fa00640147000089be008e00780066
:10336c00640047003fff07001e00be000080fa000b
:10337c00000006000600fa00000f78000e80e8003e
:10338c0001087800640047000208780064004700d8
:10339c00900078001e007800010178008e80e80013
:1033ac009100780050ff07000080fa000000060032
:1033bc000000fa00a01580000080fa000000060052
:020000040000fa
:1033cc000200fa00000f78009e007800e18488006b
:1033dc00ffff37000000fa00a0e22200800778000f
:1033ec0020e42200000188000080fa0000000600a2
:0433fc00ffff370098
:020000040000fa
:083400009a2204000000000004
:020000040000fa
:08340800661d04000000000035
:020000040000fa
:08341000a81d040000000000eb
:020000040000fa
:08341800e81d040000000000a3
:020000040000fa
:08342000861d040000000000fd
:020000040000fa
:08342800c81d040000000000b3
:020000040000fa
:08343000081e0400000000006a
:020000040000fa
:08343800001a0400000000006e
:020000040000fa
:08344000da1e04000000000088
:020000040000fa
:08344800001a0400000000005e
:020000040000fa
:08345000001a04000000000056
:020000040000fa
:08345800001a0400000000004e
:020000040000fa
:08346000001a04000000000046
:020000040000fa
:083468009621040000000000a1
:020000040000fa
:08347000001a04000000000036
:020000040000fa
:083478006022040000000000c6
:020000040000fa
:08348000001a04000000000026
:020000040000fa
:08348800001a0400000000001e
:020000040000fa
:08349000001a04000000000016
:020000040000fa
:08349800001a0400000000000e
:020000040000fa
:0834a000001a04000000000006
:020000040000fa
:0834a800001a040000000000fe
:020000040000fa
:0834b000001a040000000000f6
:020000040000fa
:0834b800101f040000000000d9
:020000040000fa
:0834c000001a040000000000e6
:020000040000fa
:0834c800001a040000000000de
:020000040000fa
:0834d000001a040000000000d6
:020000040000fa
:0834d800001a040000000000ce
:020000040000fa
:0834e000c421040000000000fb
:020000040000fa
:0834e800ec21040000000000cb
:020000040000fa
:0834f000001a040000000000b6
:020000040000fa
:0834f800001a040000000000ae
:020000040000fa
:08350000001a040000000000a5
:020000040000fa
:08350800001a0400000000009d
:020000040000fa
:08351000001a04000000000095
:020000040000fa
:08351800001a0400000000008d
:020000040000fa
:08352000001a04000000000085
:020000040000fa
:08352800142204000000000061
:020000040000fa
:083530003a2204000000000033
:020000040000fa
:08353800001a0400000000006d
:020000040000fa
:08354000001a04000000000065
:020000040000fa
:08354800001a0400000000005d
:020000040000fa
:08355000001a04000000000055
:020000040000fa
:08355800001a0400000000004d
:020000040000fa
:08356000001a04000000000045
:020000040000fa
:08356800001a0400000000003d
:020000040000fa
:08357000001a04000000000035
:020000040000fa
:08357800001a0400000000002d
:020000040000fa
:08358000001a04000000000025
:020000040000fa
:08358800001a0400000000001d
:020000040000fa
:08359000001a04000000000015
:020000040000fa
:08359800001a0400000000000d
:020000040000fa
:0835a000001a04000000000005
:020000040000fa
:0835a800001a040000000000fd
:020000040000fa
:0835b000001a040000000000f5
:020000040000fa
:0835b800001a040000000000ed
:020000040000fa
:0835c000001a040000000000e5
:020000040000fa
:0835c800001a040000000000dd
:020000040000fa
:0835d000001a040000000000d5
:020000040000fa
:0835d800001a040000000000cd
:020000040000fa
:0835e000001a040000000000c5
:020000040000fa
:0835e800001a040000000000bd
:020000040000fa
:0835f000001a040000000000b5
:020000040000fa
:0835f800001a040000000000ad
:020000040000fa
:08360000001a040000000000a4
:020000040000fa
:08360800001a0400000000009c
:020000040000fa
:08361000001a04000000000094
:020000040000fa
:08361800001a0400000000008c
:020000040000fa
:08362000001a04000000000084
:020000040000fa
:08362800001a0400000000007c
:020000040000fa
:08363000001a04000000000074
:020000040000fa
:08363800001a0400000000006c
:020000040000fa
:08364000001a04000000000064
:020000040000fa
:08364800001a0400000000005c
:020000040000fa
:08365000001a04000000000054
:020000040000fa
:08365800001a0400000000004c
:020000040000fa
:08366000001a04000000000044
:020000040000fa
:08366800001a0400000000003c
:020000040000fa
:08367000001a04000000000034
:020000040000fa
:08367800001a0400000000002c
:020000040000fa
:08368000001a04000000000024
:020000040000fa
:08368800001a0400000000001c
:020000040000fa
:08369000001a04000000000014
:020000040000fa
:08369800001a0400000000000c
:020000040000fa
:0836a000001a04000000000004
:020000040000fa
:0836a800001a040000000000fc
:020000040000fa
:0836b000001a040000000000f4
:020000040000fa
:0836b800001a040000000000ec
:020000040000fa
:0836c000001a040000000000e4
:020000040000fa
:0836c800001a040000000000dc
:020000040000fa
:0836d000001a040000000000d4
:020000040000fa
:0836d800001a040000000000cc
:020000040000fa
:0836e000001a040000000000c4
:020000040000fa
:0836e800001a040000000000bc
:020000040000fa
:0836f000001a040000000000b4
:020000040000fa
:0836f800001a040000000000ac
:020000040000fa
:08370000001a040000000000a3
:020000040000fa
:08370800001a0400000000009b
:020000040000fa
:08371000001a04000000000093
:020000040000fa
:08371800001a0400000000008b
:020000040000fa
:08372000001a04000000000083
:020000040000fa
:08372800001a0400000000007b
:020000040000fa
:08373000001a04000000000073
:020000040000fa
:08373800001a0400000000006b
:020000040000fa
:08374000001a04000000000063
:020000040000fa
:08374800001a0400000000005b
:020000040000fa
:08375000001a04000000000053
:020000040000fa
:08375800001a0400000000004b
:020000040000fa
:08376000001a04000000000043
:020000040000fa
:08376800001a0400000000003b
:020000040000fa
:08377000001a04000000000033
:020000040000fa
:08377800001a0400000000002b
:020000040000fa
:08378000001a04000000000023
:020000040000fa
:08378800001a0400000000001b
:020000040000fa
:08379000001a04000000000013
:020000040000fa
:08379800001a0400000000000b
:020000040000fa
:0837a000001a04000000000003
:020000040000fa
:0837a800001a040000000000fb
:020000040000fa
:0837b000001a040000000000f3
:020000040000fa
:0837b800001a040000000000eb
:020000040000fa
:0837c000001a040000000000e3
:020000040000fa
:0837c800001a040000000000db
:020000040000fa
:0837d000001a040000000000d3
:020000040000fa
:0837d800001a040000000000cb
:020000040000fa
:0837e000001a040000000000c3
:020000040000fa
:0837e800001a040000000000bb
:020000040000fa
:0837f000001a040000000000b3
:020000040000fa
:0837f800001a040000000000ab
:020000040000fa
:08380000001a040000000000a2
:020000040000fa
:08380800001a0400000000009a
:020000040000fa
:08381000001a04000000000092
:020000040000fa
:08381800001a0400000000008a
:020000040000fa
:08382000001a04000000000082
:020000040000fa
:08382800001a0400000000007a
:020000040000fa
:08383000001a04000000000072
:020000040000fa
:08383800001a0400000000006a
:020000040000fa
:08384000001a04000000000062
:020000040000fa
:08384800001a0400000000005a
:020000040000fa
:08385000001a04000000000052
:020000040000fa
:08385800001a0400000000004a
:020000040000fa
:08386000001a04000000000042
:020000040000fa
:08386800001a0400000000003a
:020000040000fa
:08387000001a04000000000032
:020000040000fa
:08387800001a0400000000002a
:020000040000fa
:08388000001a04000000000022
:020000040000fa
:08388800001a0400000000001a
:020000040000fa
:08389000001a04000000000012
:020000040000fa
:08389800001a0400000000000a
:020000040000fa
:0838a000001a04000000000002
:020000040000fa
:1038a8008fe622000eff22000e01880000000000b3
:1038b800000020000000e0000200320000012000ab
:1038c80020028800140007001a0307000000e00027
:1038d80003003a00c0bb24000100200002003700aa
:1038e8000000200001002000810f7000010032005c
:1038f8000f000700000020000000e0000200320076
:103908000000020000000000204402000000000047
:103918000040da000000fe00200020000000e00067
:10392800020032001000200090018800000006000c
:10393800a1028800800478000000eb001f00370017
:10394800e284440054a0b4009905ba00e28444001b
:1039580054a0b4009906ba00e284440054a0b4000c
:103968000006eb00476fde00fd07b200ae018800dd
:10397800636ce10003003a000ad801000000eb0084
:103988000e003700606ce10008003a00004deb00c3
:103998000a05e800020039003420ec000af0a00013
:1039a8008b05e900f9ff3e00040037006168e1007b
:1039b800010032000086eb000b00070019c7ba00af
:1039c8001905ba000e04e00003003a000a00e000fe
:1039d800dbff3a0000000600fe07b200ae028800d6
:1039e8008a047800f5ff37000cd0a300e20f4d00e1
:1039f8001c003b0089027800354dba000a05e80032
:103a0800020039003420ec000af0a0008b05e90020
:103a18000f003200254dba000a05e80002003900ff
:103a28003420ec000af0a0008b05e9000800320001
:103a38000c00e0000600320015cdba000a05e800c7
:103a4800020039003420ec000af0a0008b05e900e0
:103a58008984e80054a0b4000b00e000e2ff3a00bb
:103a6800000006009902ba00055d78008b05e900a0
:103a7800f7ff3200c82ade00055d78008b05e900f3
:103a8800f3ff32000c00e000f1ff320019ddba004c
:103a9800eeff3700000000000000000000000000fa
:103aa800000000000000000000000000000000000e
:103ab80000000000000000000000000000000000fe
:103ac800000000003600f800809fbe00829fbe0004
:103ad800849fbe00869fbe000000fa00c028a9008f
:103ae8000000eb0037fe07000080fa004f03be001d
:103af8004f02be004f01be004f00be003600f90065
:103b0800004006003600f800809fbe00829fbe007d
:103b1800849fbe00869fbe000000fa002efe0700ac
:103b2800c048a9001000200026fe07000080fa0007
:103b38004f03be004f02be004f01be004f00be0043
:103b48003600f900004006003600f800809fbe00ed
:103b5800829fbe00849fbe00869fbe000000fa00c0
:103b6800c068a9002000200016fe07000080fa00a7
:103b78004f03be004f02be004f01be004f00be0003
:103b88003600f900004006003600f800809fbe00ad
:103b9800829fbe00849fbe00869fbe000000fa0080
:103ba800c088a9003000200006fe07000080fa0047
:103bb8004f03be004f02be004f01be004f00be00c3
:103bc8003600f900004006003600f800809fbe006d
:103bd800829fbe00849fbe00869fbe000000fa0040
:103be800c608a90070002000f6fd07000080fa0052
:103bf8004f03be004f02be004f01be004f00be0083
:103c08003600f900004006003600f800809fbe002c
:103c1800829fbe00849fbe00869fbe000000fa00ff
:103c28002146800000102000008060000000e000b5
:103c380003003200c508a900c0002000e1fd07000c
:103c48002146800000002800008060000000e0009d
:103c580003003200c5e8a90080002000d9fd070054
:103c68002146800000022000008060000000e00083
:103c780003003200c4a8a90090002000d1fd07006d
:103c880020468000700060000000e0000300320061
:103c9800c488a900a0002000cafd070020468000b3
:103ca800610060000000e00003003200c408a900c1
:103cb800b0002000c3fd0700ffff37003600f80002
:103cc800809fbe00829fbe00849fbe00869fbe006c
:103cd8003200f8003400f80010002000a00188002d
:103ce8001000200000d0fe000200fa00e161800010
:103cf800010f7800a08480000000e000030032007b
:103d0800a18480001e007800010001001808a900a5
:103d18000080fa003400f9003200f9004f03be00b9
:103d28004f02be004f01be004f00be003600f90032
:103d3800004006003600f800809fbe00829fbe004b
:103d4800849fbe00869fbe003200f8003400f80051
:103d580010002000a00188001000200000d0fe0004
:103d68000200fa00f1618000010f7800b084800041
:103d78000000e00003003200b18480001e007800db
:103d8800010001001828a9000080fa003400f90099
:103d98003200f9004f03be004f02be004f01be00c3
:103da8004f00be003600f900004006003600f8005b
:103db800809fbe00829fbe00849fbe00869fbe007b
:103dc8000000fa00f08480000000e00002003200e9
:103dd800f08480000000010070e6220010407800a6
:103de8008040e80070e622000148780060e6220082
:103df80011c0b300014878000028a9000080fa002b
:103e08004f03be004f02be004f01be004f00be0070
:103e18003600f900004006003600f800809fbe001a
:103e2800829fbe00849fbe00869fbe000000fa00ed
:103e38000228a900211080000008200000806000ee
:103e48000000e0000900320004e2a9008030ef0021
:103e58003084800064004000100078008000eb008f
:103e6800010878008630ef002701370000848000c1
:103e78008000eb00b200200003002000820f5000f9
:103e8800838f580014013e00000601000b00370024
:103e98004700370087003700b00037000b013700b4
:103ea800de003700f100370008013700f300370063
:103eb8000901370042003700600037008007210001
:103ec8006400400010007800620060000000e0001c
:103ed8000c013a00800721000080e80010007800fb
:103ee80030848800800721000080e80010007800f6
:103ef8001040780082f0b700800721000080e800b9
:103f0800100078000080e800100078002084880005
:103f1800800721000080e80010007800e6004000db
:103f2800800721000080e800010878008007210050
:103f38000080e8009000780060e52200808f500043
:103f480004003a0080072100a1e422000080e80074
:103f58000108780080072100e40040009100780003
:103f68000100a100640040000108780080072100da
:103f78000080e80090007800800721001000780099
:103f8800808f500006003a0080072100e4004000be
:103f9800910078000110a00064004000010878003a
:103fa8000002a8002000200000848800d600370006
:103fb8000022a8002000200000848800d2003700da
:103fc8002110800000002800008060000000e00050
:103fd8000a00320080072100660040001040780087
:103fe8008040e80080072100660040000148780012
:103ff8004000200039140700c300370040848000c7
:104008008000d100f00f200000806000a010880020
:104018004084800061006000004078000004e000f7
:1040280003003200b000200000848800b60037008a
:104038003000200000848800b30037002110800081
:1040480000002800008060000000e0000a00320044
:104058008007210066004000104078008040e8009a
:1040680080072100660040000148780040002000d9
:104078001a140700a40037000022a800408480001a
:104088004800de00e6006000000f2000010070001c
:1040980040848800408480000000a000408488009c
:1040a80010c0b3008af0b700200020000084880008
:1040b800950037008ad0bf00e14f50000c00320055
:1040c80020848000100078004084880020848000cc
:1040d800640040001000780060848800208480001c
:1040e8000080e800104078008ef0b700010037002b
:1040f8008a70ef0041848000f00f2000808f50000c
:1041080009003600408480004800de00e6006000b8
:10411800000f200001007000a0108800a0002000ff
:10412800008488007800370040848000a010880050
:104138004084800061006000004078000004e000d6
:104148000300320050002000008488006e00370011
:1041580030002000008488006b00370021108000a8
:1041680000002800008060000000e0000b00320022
:104178008007210066004000104078008040e80079
:1041880080072100660040000148780005e2a90088
:1041980050002000d11307005b0037008ed0bf000d
:1041a8008080fb008100e900cf08de0081407800b4
:1041b8000040e9008ef0b7000104e0001000320072
:1041c80020848000660040002084880082d0bf00e0
:1041d8000040e90082f0b70082d0bf000004e00090
:1041e80003003a0020002000bc13070046003700f7
:1041f8000022a80020002000008488004200370028
:1042080060848000904078008180fb00a1108800c5
:104218000000e800608488003b003700211080001f
:1042280000002800008060000000e0000b00320061
:104238008007210066004000104078008040e800b8
:1042480080072100660040000148780040002000f7
:10425800a213070005e2a9002b0037000062a8009e
:10426800800020000084880027003700800020009c
:10427800008488000062a800230037006084800062
:10428800c110800081407800014878000000e800f3
:10429800608488008ed0bf000040e9008ef0b7002f
:1042a8008ed0bf000004e0000400320000a2a90084
:1042b80060002000008488000200370000a2a800e7
:1042c800751307000082a8000f00370020002000a7
:1042d800821307000c0037008007210066004000a9
:1042e800104078008040e800800721006600400008
:1042f80001487800600020007813070000000000e3
:1043080001003700000000000080fa004f03be00e3
:104318004f02be004f01be004f00be003600f9003c
:10432800004006003600f800809fbe00829fbe0055
:10433800849fbe00869fbe000000fa0001408000f6
:1043480000082000008060000000e0000500320046
:1043580040e6220011c0b300014878004c0a07006b
:1043680000e8a9000080fa004f03be004f02be001b
:104378004f01be004f00be003600f90000400600a5
:104388003600f800809fbe00829fbe00849fbe005a
:10439800869fbe000000fa0011408000000820003f
:1043a800008060000000e00002003200bf16070035
:1043b80002e8a9000080fa004f03be004f02be00c9
:1043c8004f01be004f00be003600f9000040060055
:1043d8003600f800809fbe00829fbe00849fbe000a
:1043e800869fbe000000fa001140800000102000e7
:1043f800008060000000e00002003200d4160700d0
:104408000308a9000080fa004f03be004f02be0057
:104418004f01be004f00be003600f9000040060004
:104428003600f800809fbe00829fbe00849fbe00b9
:10443800869fbe000000fa002040800068006000ef
:104448000000e00002003200081707000468a90015
:104458000080fa004f03be004f02be004f01be00ad
:104468004f00be003600f900004006003600f80094
:10447800809fbe00829fbe00849fbe00869fbe00b4
:104488000000fa0020408000700060000000e0009a
:10449800020032001e1707000488a9000080fa00f5
:1044a8004f03be004f02be004f01be004f00be00ca
:1044b8003600f90000400600809fbe000000fa00a8
:1044c800c1158000f00f20008080600020002100ce
:1044d8006600400001087800c0158000c800de00b2
:1044e800200021006400400001087800d1158000f8
:1044f800f00f200080806000200021000080e8008c
:1045080001087800d0158000c800de0020002100d6
:104518000108780010c0b30032f0b7000128a900e4
:104528000080fa004f00be00004006000040da009c
:104538000000fe000000050014002000ad03370055
:10454800f4ff2f00ab0337000001be003f00070057
:104558000470a70003f0a1006509b100160032003d
:104568000d0035006828e10006003500f0ff2f0037
:10457800f1ff27000300e00013003b0001002800c2
:104588000000050000004000818048008502e90025
:10459800fcff3a0008003700f88f420002003c0098
:1045a8008000eb00000005008100d1000080d300ee
:1045b8008502e800fcff3a000300e00002003b002f
:1045c80060001000e0801800000006000001be0036
:1045d8001e0007000470a70003f0a10003f8a30061
:1045e80013003a006509b1001000320009003500d7
:1045f8006928e100020035000100280000000500dc
:1046080000004000818048008502e900fcff3a0074
:1046180000000600f88f4200050035008100d10037
:104628000080d3008502e800fcff3a000000060085
:104638008000eb00000005004f89de008201780051
:10464800870337006011b80095033700c70ade00fa
:10465800f107b200f50fb20008003200e1cf4200c6
:10466800020032000170a00024000500810f7000d4
:10467800010032000408050044000500810f7000a5
:1046880002003a00140005008502e900000040001d
:1046980081c04800fcff3b000170a0002400050019
:1046a80007f82700078361000638e10004003a0094
:1046b800f7072000878361008703710001003a0033
:1046c80003f0a200889fbe008a9fbe008c9fbe0098
:1046d800470ade000480a100c71ade000580a10099
:1046e800070028000785600087856100f70f200014
:1046f8000720e1009e0032000728e1009c003200fc
:10470800010678000400e000b4003200f70720003a
:10471800878060000170a0000500e000c000320042
:10472800f7072000878161000370a000050652008a
:104738000f003a000b50e1000b0032000308e100c3
:1047480002003a000200e1007e003200020450003c
:1047580083845800040031000001fd008101fd0040
:104768008402fd008a05fd006044b800210037007e
:104778000520e10005003d000001fd008101fd006c
:104788008402fd008a05fd00050652007a60e100fa
:10479800050035000170a1004722dd00848070000b
:1047a8008a807000630037006044b800ef0266003a
:1047b80007ff2f00070666000500e000060034002a
:1047c800f08312008714dd000511de00071bdd00f1
:1047d800060171008519de007060e10005003500f2
:1047e8000904780082047800030178008001eb0056
:1047f800700656000b50e10003003a00020040002a
:10480800838048000400370060041400e0841c0022
:1048180002005800838058000188a3000600320077
:104828008100d1000080d3008984d3000884d3009c
:104838000402e800270037000178a30025003a00a9
:104848000100e000030032008186cf00698656002f
:104858000a0037008c0020000000e00004003a0045
:1048680009007800880478000004eb007002520008
:104878008086cf000d0646000c06e9007060e10056
:104888000600350080007800090078008804780068
:104898000004eb0070065600700252000c00e000a5
:1048a8000c0034008c08dd00f00316000703de005e
:1048b800868070000c00dd00074bde0006007000eb
:1048c8008c4cdd000743de00868474000c44dd0058
:1048d8000c0252006120e1002000350061016000f7
:1048e8000700280087816400f7ff2700878364009a
:1048f800070374000300e00006003200820373001f
:10490800040032000000e800e08048000188a300ad
:104918000e003a00f70f20000720e1004a003d0092
:104928000170a1004722dd00810072008a807000ba
:104938000000be004f06be004f05be004f04be007b
:10494800000006006000b800faff37008100d100bf
:104958000080d3000402e800eeff3700040178006d
:1049680089017400a10107008a807000f1ff3700f7
:10497800f7010700070278000001fd008101fd0032
:10498800f301070087027800850372000778a30007
:10499800040032000001fd008101fd00060207004d
:1049a800e4ff3700850362000768a30008003200af
:1049b8000b50e10003003200f0ff2f00f1ff270049
:1049c800dcff37000001fd008101fd00d9ff370041
:1049d8000468a300d7ff3200faff3700f8ff27006a
:1049e800888360000b003a000000e00009003a00ec
:1049f8008303640082837300020032000200be0059
:104a0800ccff37000b50e100ceff3a000200be0099
:104a1800c8ff370014002000810064003eff370003
:104a2800f8ff27008883610004003a000200e000d4
:104a380002003a008c007800beff37001500200005
:104a48008301640039ff370001f8270000002000c7
:104a580081007500b7ff3700889fbe008a9fbe009f
:104a68008c9fbe001b0020000202be000586680065
:104a780006002800060666004709de00f20fb200ad
:104a8800820032000243e80080003200c729de00bd
:104a9800f30fb2007d0032000343e8007b003200d0
:104aa800f107b2000170a000f507b2000570a00080
:104ab800c708dd004903de00868070004700dd007e
:104ac800c72add004923de00868272004722dd0006
:104ad800030551000403500085835800030031008a
:104ae80000004000818048000a05e9008c1f78001a
:104af8008a9fbe00040050008580580004024200ce
:104b080085824a0000004000818048000005eb00d3
:104b18000004be006033b8000406be000d48e10082
:104b280056003100050009004dccd8000c01b80032
:104b38000d02b8008481410060824a0082835300dc
:104b480003045c0084845c0060055d000a00e000ea
:104b580025003a00800578000d40e1004900310049
:104b68008800780007007800050009004d88d80003
:104b78000c01b8000d02b8008481410060824a002f
:104b88006003110083835b0004045c00e0845c0024
:104b98000900e00021003a004f01be000300e000d8
:104ba8002b003200e3016000070673008c8171005e
:104bb80001003200640070004200de004e5edd003d
:104bc8000c007000c258de0001e0a000830107005d
:104bd800cf017800818071004f06be004f05be00ee
:104be8004f04be00000006008c8343000d044c00f7
:104bf800e0844c0060054d000000e9000a00e00078
:104c0800d4ff32008c8343000d044c00e0844c0038
:104c180060054d000000e900ceff37000c0343009b
:104c28008d834b0060044c00e0844c000000e900d8
:104c38000900e000d8ff32000c0343008d834b00cd
:104c480060044c00e0844c000000e900d2ff37000b
:104c58004200de004e5edd000c007000c258de002f
:104c680001e0a000cf0178000300e000daff320085
:104c780060001000e0801800d7ff3700f0ff2f0019
:104c8800aaff3700f0ff2f00b9ff37000404be0069
:104c98002f010700870678000004fd008104fd004d
:104ca8002b010700078366000678a3000300320083
:104cb8000960a7000800be002c0037000d78a3008b
:104cc800020032000800be00280037000778a30061
:104cd80026003a0001f0a10009f0a1000668a3002f
:104ce80003003200f1ff2700f0ff2f00baff370062
:104cf8000d68a300030032000800be008c8070001d
:104d0800b5ff37000768a30007003a000648a3006c
:104d180003003200f1ff2700f0ff2f00aeff37003d
:104d28000d48a300030032006000b8008c807000ba
:104d3800a9ff37000748a3000400320001f8270044
:104d4800000020008c807000a3ff37007601070068
:104d58000004fd008104fd000205780072010700cf
:104d68000802be008a01780059ff37000160a000e0
:104d7800120220002285880097ff37000100e0001a
:104d8800120032000500e00010003200889fbe00cb
:104d98008a9fbe008c9fbe000006eb0001f8a300ae
:104da8000300320060001000e08018000cf0a00042
:104db80005f8a3000300320060021200e0821a0026
:104dc8000cf0a2008005eb0041ff37006000b8003e
:104dd800020005000383680007002800070363003a
:104de800470ade000480a100c71ade000580a10082
:104df800f70f20000720e100420032000728e100f9
:104e080040003200889fbe008a9fbe008c1f780039
:104e1800f107b200f307b2000400e00064003200ba
:104e28000170a0000500e000680032000370a000d7
:104e380085054200eb07b1000204b8000302b80080
:104e48008484440060854a00020ab80084844400cf
:104e58000a854a00030ab800040545000400330027
:104e68000804d0008984d2000a85d2008b05e900a5
:104e78006158e1003d003500021020000901610081
:104e88000308200089816100f707200087836400f8
:104e980008867300c84cde00c853dd0087847400a0
:104ea8004855de000300e000060032008203760069
:104eb800040032008904e80060054d000a88a30058
:104ec8000c003a00f70f20000758e10044003d00ad
:104ed8000a70a100c75ddd000a8575008a007300ad
:104ee800090078004f0678004f05be004f04be0049
:104ef800000006000a05d1008984d3008b05e8006c
:104f0800f0ff3700881f780006047800900007003b
:104f1800070278000001fd008101fd008c000700f8
:104f280087027800850372000778a3000500320025
:104f38000001fd008101fd009f0007004f0478007b
:104f480000000600850372000748a3000300320032
:104f5800f0ff2f00f1ff2700f8ff370000002000c6
:104f680001f8270088807000f4ff37008801780076
:104f78004848dd00808171004848de00c850dd00e7
:104f880001007000c850de00060478000b017800ac
:104f98001600070088807000d2ff37000500e00087
:104fa80005003200170020003a0007009dff370077
:104fb80081037000f9ff3a00860078004f067800f8
:104fc8004f05be004f04be000000050083037100ba
:104fd800f9ff3200270020002e00070094ff370059
:104fe80001f8270086807000f4ff37000100e00018
:104ff80026003200610111007810e10023003c0016
:105008006022b8007010e1000400350080027800ca
:10501800010078008000eb00700151000200e00000
:105028000900340070031100062add00822ade0020
:105038008603dd00878272000200de00860bdd0039
:10504800070070008208de0084817100f4ff2700e9
:105058000482620084817100040028008482620056
:105068006102600005f0a6000000060004827100dd
:10507800070032000000e800e08048000000060059
:105088000002be006000b800efff37006000b80003
:1050980000000600889fbe000004eb006138e100b4
:1050a80016003a000100e00008003a00c800de00df
:1050b8004800dd00880020000100e00003003a00fd
:1050c800c800de004800dd00680444008184cf0089
:1050d800e9845400060034008908dd00f0831400d8
:1050e8008703de00878070000900dd0009044400a2
:1050f800610214004f04be00000006000300e00037
:1051080008003a00c811de004811dd0088002000c0
:105118000300e00003003a00c811de004811dd007a
:10512800680444008384cf00e984540006003400f6
:105138008919dd00f08314008713de008781710070
:105148000911dd0009044400e1021400e9ff3700f9
:105158002700200001f0a70017002000470bde0001
:10516800f60fb200040032000643e8000a003200dd
:105178004702b3000000060001037800f607b200fa
:105188000603700002003a000703b300000006009f
:105198008702b3000000060001037800f607b2009a
:1051a80006037000020032000770a000000006002d
:1051b8000760a000000006000478a3000400320085
:1051c8000578a300030032000168a30001003a003b
:1051d8000200be000160a00000000600810170000e
:1051e800270032008002eb0001f8a3000300320020
:1051f80060001000e080180015002000f40720006f
:105208000202420020003400f703200087036000f8
:10521800060420000003630002082000000161006a
:105228004700de00c909dd0000807100c708de0004
:105238000600e00008003200870371000600320013
:105248001000b0000180b0000188a3000200320005
:10525800c108de000402e800f107b200f30f2000e5
:105268000320e10003003d004722dd0081007200b9
:105278002900370001f827000000eb00260037005e
:105288006000b80000000600680212007f20e100fc
:10529800020034006000b8001f0037006011b80039
:1052a8007020e100040035008001780001007800da
:1052b8008000eb00700252000400e0000900340096
:1052c800f00312000719dd008419de000703dd0072
:1052d800868171000400de00070bdd000600700007
:1052e8008408de00f7ff27008383630087037100cb
:1052f8000600280003036300070032000700e000ef
:1053080003003a006101600002817300020032006c
:105318001000b0000180b0000500a60000000600e3
:1053280001f0a000000006004f0ade004709de0079
:10533800f107b200f20fb2000b003200f207b10021
:105348000170a000c708dd00c901de00838070007d
:105358004700dd000400a600000006006000100001
:10536800e080180000000600810f700001003a007c
:10537800000006008182cf000500e00010003e001a
:105388008082cf00ee8242007028e10004003900dc
:1053980007003e00800078000000eb000e00370098
:1053a800708312008600de000500dd000a00370069
:1053b800708352008600dd000000eb000600370015
:1053c800e28252008508dd00708312000603de00c9
:1053d800868070000500dd007507b0000501ea0051
:1053e8000400a6000000060060001000e08018001d
:1053f80000000600889fbe008a9fbe00841f7800b8
:105408007c0007004f00780011003300f0ff2f00e8
:10541800838f6c0006003b00040565000a00a700a6
:105428000800370009f0a600100020000800370027
:10543800820f5400838f5c000300390010002000a5
:1054480001003e000000200009f0a7000000ea006b
:105458004f05be004f04be000000e000000006003b
:10546800881f7800030478000300e00007003d006f
:1054780060001000e080180060011900e081190048
:1054880002003b0001f02d00030037000400070074
:1054980008f0a70001f0a0004f0478000000060003
:1054a800889fbe008a9fbe000082700004027100bf
:1054b80004827100260032000004be000200be0013
:1054c8006011b8006b092000950220000182cf000e
:1054d8000a0039000541b1000082cf0007003900f9
:1054e8000541b1000982cf00040039000541b1002f
:1054f8000882cf00010039000541b1000542520081
:10550800120032000a003b008281710061016400d0
:105518008100d1000080d3008984d3000884d3009f
:105528008b05e8000442e800f7ff3a00070037005f
:105538000804440089844c00000048008180480029
:105548008b05e9000442e900f9ff3a00030007006f
:105558004f05be004f04be00000006008100200079
:10556800618055000b003d000b00200061fe2f00fc
:105578000100e1001d0034008281710061016400b6
:105588008904d1000884d3000000e800faff3a003b
:1055980071002000610064000300700002006000d8
:1055a8000900320061044400e0844c000988a50029
:1055b800050032008b05e8006808e10002003a00a7
:1055c8008904d1000884d300f20f20000258e100ba
:1055d80005003d00c75ddd00f907b2008980750050
:1055e80008007800000006000bf827008b00780000
:1055f800000005000004be0014fc07000003be0004
:105608000405be000200be0010fc0700844f7500b0
:10561800000006000800fa000002be0085017800bc
:1056280003f0a10000017800a6fd200097f42300f4
:10563800860f5100878f590008003e00f4ff2f00a5
:10564800f5972300840f5100858f590055003e00bf
:105658000000200001f82300600037004f0ade0038
:1056680005002000163d2500b7072400860f5100cd
:10567800878f590019003e0036be2c0067012400b0
:10568800860f5100878f59000a0036000400e00099
:1056980004003200b2fd20009304240009fc070036
:1056a80048003700b2fd200093042400fcfb0700eb
:1056b800440037000400e00004003200b2fd20007e
:1056c80093fc2300fffb0700430037000001be00e6
:1056d800b0fd200091fc230019003700561d23005f
:1056e800270e2400860f5100878f590016003e00b0
:1056f800f6dd2e00f70a2400860f5100878f590027
:105708000a0036000400e00004003200b2fd200068
:10571800930c2400ebfb070022003700b2fd2000a9
:10572800930c2400defb07001e0037000400e00095
:105738000100320001f0a20042be2c0063092400df
:10574800d7fb070024003700f4ff2f00f5f72700e8
:10575800840f5100858f5900030036000001be00f8
:10576800cffb07001d003700688157004b0007007a
:105778006011b80063016000e10f5100e08f59002b
:105788000a003200e20f5100e08f59000b0032008e
:10579800e00f5100e08f59000d003a004fb8970014
:1057a800dfb897000f0007000c0037004fb89700cc
:1057b800dfb8970001f0a200070037004fb8970044
:1057c800dfb897000700070001f0a20003003700c8
:1057d8004fb89700dfb897008b0007000080fa00e9
:1057e80000000600889fbe008a9fbe008c9fbe00f6
:1057f8000001be0077fd07000004be000001be00e6
:1058080074fd07000005be000200200003f02b0015
:105818000800be006ffd07000200200003f8230007
:10582800a8fb07000006be00f2a92a00a3d22300a5
:105838000a00be0067fd07000001be000c00be00a4
:10584800a0fb07000006be000801be000a00be005b
:1058580060fd07000005be0072a12900c37c23007b
:105868000800be005bfd0700f243200063ab230085
:105878008bfb07000001be000a00be0055fd0700b3
:105888000001be000c00be008efb07004f06be00e4
:105898004f05be004f04be0000000600ea8747001f
:1058a800889fbe008a9fbe008c9fbe008e1f780016
:1058b8000006be00020478000005be008b017800d7
:1058c80003f0a10000017800a0fd200091dc240075
:1058d800800f5100818f59001e003e0032982f0022
:1058e80023f223000c00be003afd0700020020004e
:1058f80003b4240073fb07000200200003b4240053
:1059080067fb07000005be000ffb07008004780056
:10591800a2fd200093fc23000a00be002dfd070015
:105928000001be000c00be005dfb07000006be00c3
:10593800325a2800832823000a00be0025fd0700ec
:105948000001be000c00be0055fb0700008cbe0025
:1059580026003700f0ff2f00f1f72700800f5100d5
:10596800818f5900060036000c01be000c00be00f5
:105978004bfb0700008cbe008004eb001b003700c7
:105988004718de00010020006009b1000180b10065
:10599800c702dd0004002000040151008581590080
:1059a80076875700029fbe000002eb00130020001c
:1059b800000178008e0078007680570042000700ca
:1059c80080047800e00f5600e08f5e0005003d007f
:1059d8001e00be0001f0a200008cbe008904ea008f
:1059e800020037003e1c78002e1478000900780069
:1059f8004f0778004f06be004f05be004f04be009b
:105a0800af00b10000000600889fbe008a9fbe005c
:105a18008c9fbe000005be000001be00edfc070023
:105a28000004be000a01be00eafc07000006be0032
:105a38004288280083c023000800be00e5fc070058
:105a4800b2aa2a00a3e2230015fb07000001be004a
:105a58000c00be00dffc07000001be000a00be000b
:105a680018fb07000005be000801be000800be00c4
:105a7800d8fc07000001be000c00be00d5fc0700e2
:105a88000006be00c2c32600636323000800be00f0
:105a9800d0fc0700f27c20000395230000fb0700e0
:105aa8000001be000c00be00cafc07000001be00d9
:105ab8000a00be0003fb07004f06be004f05be00ec
:105ac8004f04be0000000600af17b000889fbe005c
:105ad8008a9fbe008c9fbe008e1f7800b0a79f00d3
:105ae80081af9f000204780003057800f4a79f00a7
:105af80004004200a1cf220000804000100078007e
:105b08006101b900b2af9f00c3af9f000a00e9006e
:105b18006102b90094af9f00a5af9f0063005400d5
:105b280082012000050009000200d8006103b900c5
:105b3800d6a79f00e7a79f00e00f5300e08f5b0008
:105b480003003d006000b800d0a79f00e1a79f00b8
:105b58005fa19700efa197000280ea008380ea0026
:105b6800820120000300200007040700cfc1de00e7
:105b780000044400818449005fa29700efa29700c7
:105b88001fab9700afab97000606520087865a00f6
:105b98003fa89700cfa897000002430081824b00de
:105ba8006eec2f000f074700c265dd0020d02200f1
:105bb800808545006011b8000803be000a04be00d5
:105bc8000205be00140037006000b800e00f560060
:105bd800e08f5e000a0035001900be00d4b79f00b0
:105be800e5b79f00f6b79f0087bf9f0092fa0700ae
:105bf8008fbb97007fb39700efb297005fb2970013
:105c080000afbe0061054500e0854d006106460015
:105c1800e0864e00e4844400840f5500858f5d00c3
:105c2800e9ff34000805780064f62f000f024200ef
:105c38006011b800b2b79f00c3b79f008406780010
:105c48001e0037003c00be004b01be00d4b79f00c9
:105c5800e5b79f00f6b79f0087bf9f005dfc070070
:105c68000001be000800be0096fa07000004be004e
:105c78005fb29700efb2970061024200e0824a00eb
:105c88008fbb97007fb397001fa89700afa8970016
:105c9800800f5200818f5a00eaff340088aebe00a0
:105ca8003fb19700cfb1970061014100e081490001
:105cb800b2b79f00c3b79f000a05e8003fb297003c
:105cc800cfb297003fa89700cfa89700800f520047
:105cd800818f5a0008003c003fa69700c255dd009e
:105ce800a1ec2f008f8040008b8540006044b800f5
:105cf8006022b800e4ff37003fa99700cfa99700ba
:105d0800b2b79f00c3b79f0096b79f00a7b79f0081
:105d1800bfb297004228dd00a6e72f000f0343001b
:105d28000000430000bc900090bc90006de72f007d
:105d38008f8646003fb09700cfb0970061005000b3
:105d4800e0805800f0af9f0081b79f00c205dd00da
:105d5800a1f62f008f8040008b8540000d0578004c
:105d68003fb39700cfb397000d07780019003700ad
:105d780002002000033823000800be00f6b79f0089
:105d880087bf9f0013fc0700eff907002afa0700f6
:105d98000006be000200200003b824000dfc070026
:105da8000001be000800be003dfa0700e6f9070042
:105db80000adbe002b00be000c01be0041fa07007a
:105dc8000004be007fb397008fbb970061035300a8
:105dd800e0835b00e00f5300e08f5b00e4ff3c00d2
:105de8008e0678001fb697000c0178000800be00e8
:105df800340307000004be000200200003e0230073
:105e0800f4fb0700d0020700020020000310240062
:105e1800f0fb07000001be000800be0020fa0700e2
:105e28000005be00c8f907000004be0002fa07001a
:105e38000001be000a00be0019fa07000005be00f6
:105e48001fb19700afb19700e00f5100e08f5900e4
:105e580022003400ffa997004218dd00a4e72f00b4
:105e68000f024200000042001002be00f8001600b7
:105e78000401be00010378000603e90003003300b3
:105e88008381d1000281d300fbff37000804410061
:105e9800898449008100e9000300330002014100c0
:105ea80083814900fbff37000201520083815a00b9
:105eb8000288be00770016000202be000000e9005a
:105ec800030033008582d1000482d300fbff370032
:105ed800d4af9f00e5af9f001d0037001fb39700a8
:105ee800afb39700e00f5300e08f5b000b003a0060
:105ef800ffab97004238dd00a1e72f008f804000fc
:105f0800008040001000be004789de00d2af9f002d
:105f1800cf89de00e3af9f000d00370002002000ac
:105f280003f0230086f90700240020000500200064
:105f3800d4af9f00e5af9f000000e00009003d00de
:105f48006033b800d6af9f00e7af9f00620037000c
:105f58005fa89700efa89700e00f5000e08f580067
:105f68005d00340061044400e0844c006000b80027
:105f78006022b800120037005d01be00e00f520039
:105f8800e08f5a0006003a00e00f5100e08f5900f8
:105f9800090032000400200005102000020037002c
:105fa800f4ff2f00f50f2000821e520083965a003e
:105fb800140020000500200061004000e080480037
:105fc8003fb19700cfb19700820f5000838f5800e0
:105fd800e9ff35001fb39700afb39700e00f5300f8
:105fe800e08f5b0023003400e10f5300e08f5b007b
:105ff80004003200e20f5300e08f5b001d003a00fe
:106008000e003700ffab97004238dd00a1e72f00f4
:106018008f804000008040001001be00030378001c
:10602800f607b200a6a79f008203780097a79f00f3
:106038001fa19700afa197000d003700ffa9970097
:106048004218dd00a6e72f000f03430000004300bd
:106058001001be0083037800f703b20087a79f00f2
:1060680082007800f19f9f007f9997008fa1970089
:106078000288be005fab9700efab9700e20f5300ba
:10608800e08f5b0014003a000a01be000000200007
:1060980001f82300d4b79f00e5b79f0080f90700f7
:1060a8000005be005fb29700efb29700e00f520004
:1060b800e08f5a00080032000c0178000000200030
:1060c80001f823007f0207000001be000a00be009d
:1060d80073f907000005be006011b8000a00be0091
:1060e80015f907000000e00082003a003fb0970071
:1060f800cfb09700ffab9700423add00a2e72f0030
:106108000f014100040241006011b800030037008c
:106118002403be00060171008781710061005000f0
:10612800e08058003fab9700cfab9700860f500038
:10613800878f5800f6ff3d00e00f5100e08f5900af
:106148007a003a0061005300e0805b004200dd0005
:10615800a7e72f008f834300008043001200200030
:1061680003002000f2af9f0083b79f0012002000b9
:10617800030020000200370061014100e08149006e
:106188002002be00e00f5200e08f5a00faff3200f2
:10619800f2af9f0083b79f003fb39700cfb397003c
:1061a80061024300e0824b004226dd00a7f62f0083
:1061b8008f8343000c8643005fa19700efa19700ef
:1061c80061004100e08049003fb39700cfb39700da
:1061d8000000430081804b00c204dd0020d0220073
:1061e800808444001fa99700afa99700610041006f
:1061f800e08049000000430081804b004201dd003f
:10620800a3ec2f008f81410082814100c3a79f002a
:106218000004e80009077800880678000404be0036
:10622800280037003e00be0003f907004fa2970080
:10623800009abe00c4a79f003fa29700c26add0073
:10624800a6ec2f000f034300850243006033b8001b
:106258006055b800d89f9f00e99f9f000404be00c6
:106268000d0037003800be004901be00f6b79f0098
:1062780087bf9f00d7fa07000001be000a00be00d2
:1062880010f907000005be007fb397008fbb970089
:1062980061034300e0834b001fa99700afa9970053
:1062a800820f5300838f5b00eeff34005f9c9700e2
:1062b800ef9c97000a9ebe0061044400e0844c00f5
:1062c8008d06e8007faa97008fb297003fb397002a
:1062d800cfb397000400430085804b00800f540023
:1062e800818f5c00cfff3400b0b79f00c1b79f001b
:1062f80087fe370098af9f00a9af9f001fb4970093
:10630800afb497000c01ea000a00be00ed010700d7
:106318000005be000200200003b8240088f807002a
:106328000000e00020003d004300370098af9f00c8
:10633800a9af9f001fb49700afb497003fb0970074
:10634800cfb0970061005000e0805800b0b79f00c0
:10635800c1b79f0078045400e0845c00bfb0970088
:106368004208dd00a2e72f000f01410000004100b4
:106378003fb19700cfb19700040037006101510089
:10638800e081590078045400e0845c002002be00db
:10639800e00f5200e08f5a00f8ff3200b2b79f00ba
:1063a800c3b79f002c0037000200200003382300e9
:1063b8000a00be0087fa070063f807009ef8070086
:1063c8000006be00bfb29700422fdd00a6e72f00ef
:1063d8000f0343000e0743000200200003b8240007
:1063e8007cfa07000001be000a00be00acf80700f6
:1063f80055f80700008fbe003fb09700cfb0970058
:1064080061004000e0804800b0b79f00c1b79f001e
:1064180078044400e0844c004205dd00a1e72f0029
:106428008f8040000a8540000c00be0046f8070037
:10643800008dbe00080037003fb197004216dd000e
:10644800a3e72f008f8141000c8641000a00be009f
:106458003df80700008ebe0008017800000020000b
:1064680001f82300970107000004be003fb297001f
:10647800f4af9f008402e80095b79f00c22ddd00ad
:10648800a6e72f000f0343000b054300a7f62f00d4
:106498008f8343008b8543003fb69700cfb69700a4
:1064a8000d0037004a00be0063f807000001be0077
:1064b8000800be0047fa070080a5be0002002000c1
:1064c800033823000800be0042fa07000004be009b
:1064d80061065600e0865e00e00f5600e08f5e0021
:1064e800f0ff3d006df12f008f8646003fb5970005
:1064f800cfb597001c0037005c01be005e00be00ef
:10650800d4b79f00e5b79f0032fa07000001be002c
:106518000800be006bf807000004be0061054500d6
:10652800e0854d00efb297005fb297003fa8970053
:10653800cfa89700800f5500818f5d0007003c00b1
:106548003fb19700cfb197000400510085805900f2
:10655800800f5500818f5d00e7ff340088aebe00d4
:1065680061055200e0855a00e00f5500e08f5d009c
:106578000b0035006ee022000a06e9004266dd00e5
:10658800a3f62f008f8141000c8641006044b800bb
:106598006000b8000a02be000005be00e3ff370035
:1065a8007fa29700e20f520005003c00e10f520065
:1065b80010003d000400e00017003200da00370048
:1065c800ffa29700e38f5200d7003a003fb397002d
:1065d8004232dd00a7f12f008f834300048243007d
:1065e800040778003fb39700cfb39700b4af9f007c
:1065f800700037001fb097004205dd00a1f12f00a1
:106608008f8040000a8540003fb49700cfb49700c0
:106618006000b8001d0037001fb197004214dd006c
:10662800a3f12f008f814100088441003fb59700f6
:10663800cfb597006000b800040037004801be00dd
:1066480020f8070061055500e0855d00e00f550062
:10665800e08f5d00f9ff3d005faa9700efaa970061
:10666800e00f5200e08f5a000100320001f0a20052
:106678008faa9700808abe00ab0037004a01be008f
:1066880010f8070061045400e0845c00e00f540037
:10669800e08f5c00f9ff3d000001be005fab970092
:1066a800efab9700e00f5300e08f5b000100320072
:1066b80001f0a2008fab9700808bbe005f089700a7
:1066c800ef089700f6f70700aaf12f000f0545001d
:1066d8001800200009002000040037005a01be00fd
:1066e800f8f7070061044400e0844c003fb19700cc
:1066f800cfb19700820f5400838f5c00f7ff3400fe
:106708008fa99700648141005faa9700efaa9700bc
:10671800e00f5200e08f5a000100320001f0a200a1
:106728000089be0080003700c0ff2f00ffaa970035
:1067380080a8b900000047003fb29700cfb2970089
:1067480061015200e0815a004211dd0082024000de
:106758005506be000e0278005405be000a01be00b0
:106768000c00be00d4b79f00e5b79f00f6b79f00a6
:1067780087bf9f00d3f707000004be000001be00da
:106788000c00be00c6f707000001be000a00be00ec
:10679800ccf707005fb29700008abe00efb29700ff
:1067a800888abe007fb397008fbb970061035300b0
:1067b800e0835b0064075700e00f5300e08f5b0045
:1067c800d9ff3c003faa97003fb39700cfb397008b
:1067d8000404780023003700c0ff2f00ffaa9700a9
:1067e80080a8b900000044003fb29700cfb29700dc
:1067f80061015200e0815a00c214dd0089044000a2
:106808005902be00080778005e06be000c01be00f3
:106818000400be00d4b79f00e5b79f00f6b79f00fd
:1068280087bf9f00a7f707000005be000001be0054
:106838005fb29700efb297000400be0098f7070018
:106848000001be000c00be009ef70700008fbe00ce
:106858008a8cbe007fb397008fbb970061035300fb
:10686800e0835b0064045400e10f5300e08f5b0099
:10687800d9ff3c009fb29700422cdd00a6f12f0003
:106888000f034300080443003fb59700cfb59700b6
:106898006000b800040037004801be0089f707000f
:1068a80061055500e0855d00e10f5500e08f5d0052
:1068b800f9ff3c005fa99700efa99700e00f51008e
:1068c800e08f59000b003a000fa997005f0a970064
:1068d800ef0a97000499be007f0b97008f1397006b
:1068e8000689be008fab9700c0039800d1039800bb
:1068f8000d0037005f0a9700ef0a970005f0a20025
:106908000fa997000499be007f0a97008f1297007d
:1069180005f0a2000489be0001f0a2000fa99700ab
:1069280040019800510198009fa997006780610075
:106938004f0778004f06be004f05be004f04be004b
:10694800af17b100000006000c00fa00889fbe00d7
:106958008a9fbe008c1f78000004be006000b8004b
:106968006011b800f0b79f0081bf9f0092bf9f00e1
:10697800a3bf9f00f8b79f0089bf9f007fb2970011
:106988008fba97001fbb9700afbb9700443ade0051
:10699800f07f20000006620020432000800f560090
:1069a80042003c006011b8000800be00e2f6070093
:1069b8000000e0003d0032007fb097008fb89700dc
:1069c8001fb99700afb99700e00f5000e08f58004b
:1069d800e00f5900e08f590008003d000200200038
:1069e80003b024000800be002df7070002002000b5
:1069f80003b0240033f70700070037000200200027
:106a080003b024000800be002ef707000200200093
:106a180003b0240022f707000801be0020f7070092
:106a28000005be00e03f2000800f56000f003c002c
:106a3800dab79f00ebb79f006044b8007fb09700bb
:106a48008fb897001fb99700afb99700e00f5000b3
:106a5800e08f5800e00f5900e08f590013003d0007
:106a68000800200009f82b00100037006011b8005a
:106a78000a00be00b2f607000000e000070034007c
:106a88000a01be000800be000ef707000200200041
:106a980003f8230002f70700030037000a01be00cd
:106aa8000800be0007f707000004be000800be008b
:106ab8004f0678004f05be004f04be000080fa0064
:106ac80000000600889fbe008a9fbe00020478006e
:106ad800f93f2000890f54000d0034000200200007
:106ae80003f82700bbf80700f83fb100890f5400ee
:106af800150034000200200003f82700b5f807004d
:106b0800f83fb100890f54000e003c000e0037001a
:106b180029c02f00890f54000b003d006011b800f8
:106b2800acf80700983cb000890f540006003d00ff
:106b38006011b800a7f80700983cb000890f54000e
:106b480001003d0009047800f83fb000cfc4de0022
:106b5800614db9006044b8000801be009df8070007
:106b68004f05be004f04be000000060080017800fb
:106b780002003700b15978000201e9000200e00084
:106b8800fcff3a0000000600020ab900001bb90029
:106b98000200b800810042008100430000000600a6
:020000040000fa
:106ba8000000fa002be3a80061e3a80097e3a8001f
:106bb800cde3a80003e4a80039e4a8000080fa00a7
:106bc800000006000400fa00000f78000e80e800bc
:106bd800010878001e007800e30f5000160032000c
:106be800e30f500005003e00e10f50000a0032009c
:106bf800e20f50000c0032001f003700e50f500074
:106c080015003200e50f50000f003900e60f500064
:106c180015003200180037000e80e8009000780058
:106c2800711a8800140037000e80e8009000780080
:106c3800211c8800100037000e80e80090007800c2
:106c4800d11d88000c0037000e80e8009000780005
:106c5800811f8800080037000e80e8009000780047
:106c680031218800040037000e80e8009000780089
:106c7800e1228800000000000080fa000000060001
:106c88000000fa000000fe000080fa000000060084
:106c98000000fa000ad0bf000004a2000004e000cf
:106ca80012003a0062002000e10a2100600b210076
:106cb800aeff0700600a210081cab30001487800ce
:106cc800030021009201200011c0b300600a2100d6
:106cd80011090700030021009201200061c0b300e0
:106ce800e00a21002d09070001003700000000001c
:106cf8000080fa00000006000400fa00881f7800ef
:106d0800008fbe0018c0b3006011b8001e00be009e
:106d18000bf607000000e00001003d000044eb0016
:106d28000804e000020032001e00be000200370026
:106d38001e00be0001f0a2004f0478000080fa0097
:106d4800000006000a00fa00881f7800008fbe00c5
:106d5800640047000288be006800470004487800c5
:106d68006800470010407800e14f500018003a00d2
:106d780018c0b300640047001e01be001000be002a
:106d8800eff507000000e00001003c000044eb00c4
:106d98000804e00005003200640047001e01be0040
:106da8001000be003ef607002000370064004700d0
:106db8001001be001e00be0039f607000001be002b
:106dc80000002000413b240035f60700170037007b
:106dd80018c0b300640047001e01be001000be00ca
:106de800d5f507000000e000010035000044eb0085
:106df8000804e00005003200640047001001be00ee
:106e08001e00be0026f60700080037006400470091
:106e18001e01be001000be0021f607000001be00e2
:106e280000002000413b24001df607004f047800b5
:106e38000080fa00000006000400fa00881f7800ad
:106e4800008fbe000500370002002000433b2400ed
:106e58001e00be0012f60700008fbe0018c0b30067
:106e680002002000433b24001e00be00b4f50700ca
:106e78000000e00001003d000044eb000804e000d1
:106e8800f1ff3a000500370002002000433b2400d0
:106e98001e00be000bf60700008fbe0018c0b3002e
:106ea8006011b8001e00be00a3f507000000e00056
:106eb800010035000044eb000804e000f2ff3a004e
:106ec8001e00be004f0478000080fa000000060093
:106ed8000c00fa00680147000089be0068004700fe
:106ee80002002000432b24001000be00f5f5070027
:106ef800008fbe00b2fd2000930424001e00be00d7
:106f0800b4f707000200200043332400d2f607003c
:106f1800640147000089be00640047001000be00fd
:106f2800bcf907000080fa00000006001c00fa0007
:106f3800881f780070034700008bbe00740047006c
:106f48000288be0078004700040878007a004700ed
:106f5800050878007800470010007800cf80de0030
:106f6800b5f507000001be0000002000413b2400e9
:106f7800b9f60700680147000089be0070004700a5
:106f8800301f780020177800050037006800470098
:106f98001001be001e00be00c1f50700008fbe0034
:106fa80018c0b300680047001001be001e00be00f4
:106fb80063f507000000e00001003d000044eb001d
:106fc8000804e000f1ff3a0002002000433b2400df
:106fd8001e00be007ff70700680147001201be00cf
:106fe8009df607006c0147000089be007a00470043
:106ff800100078000000e00017003a006c0047001d
:1070080002002000030a24001000be0071f70700e8
:107018004df5070000007800c200dd00c00b21001c
:10702800008040001000be00740147001201be003d
:1070380068f70700020020000300240086f6070016
:1070480002c02100436f24009ef507006401470039
:107058000089be00390037007a0047001000780028
:10706800e10f50001b003a006c00470002002000ae
:10707800032f24001000be0092f507006eff0700e2
:1070880002002000030a240052f707002ef507002b
:1070980000007800c200dd00c00b21000080400025
:1070a8001000be00740147001201be0049f7070036
:1070b800020020000300240067f6070002c0210038
:1070c800436f24007ff50700640147000089be0074
:1070d8001a0037006c00470002002000032f24002c
:1070e8001000be006ef5070053ff070002002000e5
:1070f800030a240037f7070013f50700000078009b
:10710800c200dd00c00b2100008040001000be005e
:10711800740147001201be002ef70700020020008c
:10712800030024004cf6070002c02100436f24002e
:1071380064f50700640147000089be006400470049
:107148001000be0000f50700000078004f0478002a
:107158000080fa00000006001800fa00889fbe00b0
:10716800f08280000183800002002000832c24002c
:1071780018f70700f4f4070000007800d0828800b0
:10718800108380002183800002002000832c2400cb
:1071980010f70700ecf4070000007800e082880090
:1071a8004cd0bf000004e0001a003200f4828000d6
:1071b8000583800070838000818380000001be0009
:1071c8000400be0003f707000002be0060808000d4
:1071d800718080000001be000400be0039f5070080
:1071e80015ff07006080880071808800608080003b
:1071f80071808000e0808800f18088002870ef00ae
:10720800a0818000b18180002082880031828800be
:10721800dc0037006480800075808000a0808000da
:10722800b18080000001be000400be00c2f4070067
:107238000000e00015003a00208180000000e00016
:1072480012003a0028d0bf00e14f4000030032008e
:1072580028d0bf000040e80028f0b7007082800006
:107268000000e00004003400708280000000e900a3
:1072780070828800c3003700e0818000f1818000bf
:107288002082880031828800be0037002430ef0059
:1072980050838000708288006000b800008fbe00b4
:1072a8006000b800640147000089be007083800058
:1072b80081838000c5f4070000417800a080800029
:1072c800b18080006680800077808000024278006c
:1072d8000001be000600be009afe070080828800fa
:1072e80091828800d0828000cf80de00d2f407002f
:1072f8000002be00808280009182800018c0b30026
:107308000001be000400be008df407000000e0008c
:1073180001003d000044eb000804e00020003200ba
:10732800f882800009838000d0828000cf80de0050
:10733800c1f407000002be008082800091828000b4
:107348000001be000400be00c3f5070002002000d3
:1073580003f82300dbf407000001be000800be00ac
:10736800bdf50700008fbe008082800091828000fa
:1073780018c0b3001e01be0071f407000000e00051
:1073880001003c000044eb000804e0004900320022
:10739800640047003e1878002e107800450037003a
:1073a8005481800065818000f08280000183800024
:1073b80018c0b3000001be000400be005ef4070060
:1073c8000000e000010035000044eb000804e00084
:1073d8001d003200f882800009838000d08280007e
:1073e800cf80de0094f407000001be000800be0054
:1073f80099f507000002be0050818000618180007d
:107408000001be000400be00aef40700008fbe00fd
:10741800808280009182800018c0b3001e01be00e7
:1074280047f407000000e00001003c000044eb00c6
:107438000804e0001f003200640047003e1878008e
:107448002e1078001b003700f28280000383800032
:10745800028fbe0080828000918280003af407008b
:107468000000780000f0a7000000ea00cf80de00ee
:1074780071f4070018c0b3001e01be0030f4070005
:107488000000e00001003c000044eb000804e000bc
:1074980004003200640047003e1878002e1078007f
:1074a80004003700640047008282800093828000d5
:1074b8000288be001e01be005281880063818800d8
:1074c8007083800081838000640147001201be0040
:1074d80040f607000002be006080800071808000d6
:1074e8000001be000400be0076f4070052fe07004b
:1074f80060808800718088007083800081838000ac
:1075080032f4070000417800a0808000b18080003c
:107518006680800077808000024278000001be000b
:107528000600be0007fe070018c0b300a2702d00b9
:1075380033c2230000f407000000e000010035001a
:107548000044eb000804e00004003200a080800042
:10755800b18080006080880071808800a0818000f0
:10756800b18180002082880031828800608080009c
:107578007180800030fe0700e0808800f18088007c
:107588002870ef00208280003182800002002c00e9
:10759800135c24000ff60700700147000089be0045
:1075a80032838000e0808000f18080008002eb0060
:1075b80002027800700147001201be005bfe07005e
:1075c80080007800600020007efd07003283800084
:1075d800e0808000f1808000150020000202780021
:1075e800700147001201be0050fe070080007800bd
:1075f8005000200073fd070032838000e080800087
:10760800f180800025002000020278007001470008
:107618001201be0045fe07008000780030002000ff
:1076280068fd07004dd0bf000004e0001a003200da
:10763800148380002583800090838000a1838000cc
:107648000001be000400be00e2f507000002be0013
:1076580080808000918080000001be000400be0090
:1076680018f40700f4fd07008080880091808800e6
:1076780080808000918080000081880011818800ce
:107688002970ef00c0818000d1818000408288008d
:1076980051828800dd00370084808000958080005a
:1076a800c0808000d18080000001be000400be00c0
:1076b800a1f307000000e00015003a0030818000c7
:1076c8000000e00012003a0029d0bf00e14f40005e
:1076d8000300320029d0bf000040e80029f0b700bd
:1076e800a08280000000e00004003400a082800036
:1076f8000000e900a0828800c400370000828000f2
:10770800118280004082880051828800bf003700c3
:107718002630ef0060838000a08288006000b800f7
:10772800680147000089be006000b8006c0147008e
:107738000089be0090838000a1838000a3f3070026
:1077480000417800c0808000d18080008680800061
:1077580097808000024278000001be000600be004b
:1077680078fd0700b0828800c1828800e08280002e
:10777800cf80de00b0f307000002be00b0828000b8
:10778800c182800018c0b3000001be000400be0022
:107798006bf307000000e00001003d000044eb002f
:1077a8000804e00023003200188380002983800049
:1077b800e0828000cf80de009ff307000002be0059
:1077c800b0828000c18280000001be000400be00bb
:1077d800a1f407000200200003f82300b9f3070012
:1077e8000001be000800be009bf4070068014700c6
:1077f8000089be00b0828000c182800018c0b3003a
:10780800680147001201be004df307000000e000c8
:1078180001003c000044eb000804e0005000320086
:107828006c004700e8004700311878002110780004
:107838004b003700748180008581800010838000b0
:107848002183800018c0b3000001be000400be0000
:1078580039f307000000e000010035000044eb00a8
:107868000804e0002000320018838000298380008b
:10787800e0828000cf80de006ff307000001be00c9
:107888000800be0074f407000002be00708180008a
:10789800818180000001be000400be0089f307005a
:1078a800680147000089be00b0828000c182800064
:1078b80018c0b300680147001201be0020f307009a
:1078c8000000e00001003c000044eb000804e00078
:1078d800230032006c004700e800470031187800a8
:1078e800211078001e0037006800470012838000ce
:1078f800238380000288be00b0828000c18280009d
:1079080011f307000000780000f0a7000000ea006b
:10791800cf80de0048f3070018c0b30068014700b5
:107928001201be0006f307000000e00001003c0061
:107938000044eb000804e000050032006c0047003a
:10794800e80047003118780021107800040037005b
:107958006c004700b2828000c38280000288be00ab
:10796800680047001001be0072818800838188008a
:1079780090838000a18380006c0147001201be0043
:1079880014f507000002be0080808000918080000e
:107998000001be000400be004af3070026fd0700f0
:1079a800808088009180880018c0b3006c00470070
:1079b800a2702d0033c223001000be00def20700c3
:1079c8000000e000010035000044eb000804e0007e
:1079d80004003200c0808000d18080008080880050
:1079e80091808800c0818000d18180004082880019
:1079f8005182880080808000918080000efd070001
:107a080000818800118188002970ef004082800081
:107a18005182800002002c00135c2400edf4070062
:107a2800740147000089be00428380000081800005
:107a3800118180008002eb00020278007401470087
:107a48001201be0039fd07008000780020002000e8
:107a58005cfc070042838000008180001181800067
:107a68001500200002027800740147001201be00d0
:107a78002efd0700800078001000200051fc070050
:107a88004283800000818000118180002500200051
:107a980002027800740147001201be0023fd0700ae
:107aa800800078004000200046fc07004f04be001c
:107ab8000080fa00000006000000fa00b822ef007b
:107ac800ba22ef000080fa00000006000000fa0069
:107ad800200021000080e800100078004800dd0048
:107ae80021002100e48040009100780000807000af
:107af800b0838800b0838000b80907000080fa00ce
:107b0800000006000400fa00881f78006000b80032
:107b1800008fbe0020002100100078006100600086
:107b2800004078000004e0001a0032002000210024
:107b38000080e800100078008000eb00c1f2070028
:107b4800008fbe0018c0b30002002000832c240060
:107b58001e00be007af207000000e00001003c00b1
:107b68000044eb000804e00003003200000020009d
:107b7800812c2400008fbe00020020000312240084
:107b88001e00be00b4f30700c0818800d1818800c0
:107b980019003700200021000080e800100078005c
:107ba8008000eb00a7f20700008fbe0018c0b300ea
:107bb80002002000832c24001e00be0060f2070093
:107bc8000000e00001003c000044eb000804e00075
:107bd8000300320000002000812c2400008fbe002a
:107be80002002000031224001e00be009af30700c2
:107bf800a0818800b18188004f0478000080fa00d5
:107c0800000006000400fa00881f78006000b80031
:107c1800008fbe0020002100100078006100600085
:107c2800004078000004e00023003200200021001a
:107c38000080e800100078008000eb0081f2070067
:107c4800008fbe0018c0b30002002000832c24005f
:107c58001e00be003af207000000e00001003c00f0
:107c68000044eb000804e00003003200000020009c
:107c7800812c2400008fbe00020020000312240083
:107c88001e00be0074f3070000828800118288007d
:107c98002000210064004000100078004800dd004a
:107ca80021002100e68040009100780000807000eb
:107cb8006083880022003700200021000080e8004f
:107cc800100078008000eb005ef20700008fbe0015
:107cd80018c0b30002002000832c24001e00be0040
:107ce80017f207000000e00001003c000044eb0030
:107cf8000804e0000300320000002000812c24006a
:107d0800008fbe0002002000031224001e00be00e7
:107d180051f30700e0818800f181880020002100ec
:107d280064004000100078004800dd0021002100b8
:107d3800e680400091007800008070005083880041
:107d48004f0478000080fa00000006001200fa00d4
:107d5800881f7800f0004700804878002000210044
:107d68000080e80090007800000f2000008060008c
:107d78004400dd0021002100e480400091007800eb
:107d8800008070008000eb002ef20700008fbe001c
:107d980002002000031224001e00be002ef307007c
:107da800008fbe00200021000080e800100078004d
:107db8006f0060004800dd0021002100e6804000df
:107dc80091007800008070008000eb001df2070031
:107dd800640147000089be006400470002002000db
:107de800a34724001000be001bf3070064014700ee
:107df8000089be00200021001000780061006000aa
:107e0800004078000004e000580032004d70ef0098
:107e180070004700104078000004e0002e00320097
:107e280080808000918080001e01be001cf2070047
:107e3800680147000089be0018c0b3006800470009
:107e48006011b8001000be00bdf107000000e0009e
:107e580001003c000044eb000804e000030032008d
:107e68000000200001f82b0002003700000020006d
:107e780001f8230090838800a183880068004700e8
:107e88001000be00b0f107000000780000f0a70065
:107e98000000ea00cf80de00e7f1070018c0b30059
:107ea8000200200043332400a5f107000000e00091
:107eb80001003c000044eb000804e000120032001e
:107ec80090838000a183800001f0a2009083880045
:107ed800a18388000c0037002000210010007800e2
:107ee800680060000000e00003003a000000200085
:107ef80001f82b00020037000000200001f82300e1
:107f080090838800a1838800640047001001be00a8
:107f18001283880023838800c0808000d18080007d
:107f28000001be001e00be00ddf1070072fb070065
:107f380018c0b300a2702d0033c2230080f10700df
:107f48000000e00001003c000044eb000804e000f1
:107f58005d0032001e01be00c2808800d380880008
:107f68001000200030818800570037004c70ef0067
:107f780070004700104078000004e0002e00320036
:107f880060808000718080001e01be00c4f107007f
:107f98006c0147000089be0018c0b3006c004700a0
:107fa8006011b8001000be0065f107000000e00095
:107fb80001003c000044eb000804e000030032002c
:107fc8000000200001f82b0002003700000020000c
:107fd80001f8230070838800818388006c004700c3
:107fe8001000be0058f107000000780000f0a7005c
:107ff8000000ea00cf80de008ff1070018c0b30050
:1080080002002000433324004df107000000e00087
:1080180001003c000044eb000804e00012003200bc
:10802800708380008183800001f0a2007083880043
:10803800818388000c0037002000210010007800a0
:10804800680060000000e00003003a000000200023
:1080580001f82b00020037000000200001f823007f
:108068007083880081838800640047001001be0087
:10807800f282880003838800a0808000b18080009d
:108088000001be001e00be0085f107001afb0700b4
:1080980018c0b300a2702d0033c2230028f10700d6
:1080a8000000e00001003c000044eb000804e00090
:1080b800050032001e01be00a2808800b38088003f
:1080c80010002000208188004f0478000080fa000a
:1080d800000006000800fa00881f78002000210030
:1080e8000080e80090007800000f20000080600009
:1080f8004400dd0021002100e48040009100780068
:10810800008070008000eb004ef10700008fbe0079
:1081180002002000031224001e00be004ef20700d9
:10812800008fbe00200021000080e80010007800c9
:108138006f0060004800dd0021002100e68040005b
:1081480091007800008070008000eb003df107008e
:10815800640147000089be00640047000200200057
:10816800a34724001000be003bf20700640147004b
:108178000089be0020002100100078006100600026
:10818800004078000004e0002d0032004d70ef0040
:108198002000210010007800680060000000e00066
:1081a80003003a000000200001f82b00020037000d
:1081b8000000200001f8230090838800a183880034
:1081c80090838000a183800018c0b3006011b800bc
:1081d800dbf007000000e00001003c000044eb0079
:1081e8000804e0000800320000818000118180004e
:1081f8001e01be0033f107000ffb0700c080880096
